:100000000C945D000C9485000C9485000C94850084
:100010000C9485000C9485000C9485000C9485004C
:100020000C9485000C9485000C9485000C9485003C
:100030000C9485000C9485000C9485000C9485002C
:100040000C9438030C9485000C9485000C94850066
:100050000C9485000C9485000C9485000C9485000C
:100060000C9485000C94850000000008000201003B
:100070000003040700000000000000000000000072
:10008000250028002B0000000000240027002A0083
:10009000040404040404040402020202020203032E
:1000A0000303030301020408102040800102040836
:1000B0001020010204081020370511241FBECFEFC5
:1000C000D8E0DEBFCDBF12E0A0E0B1E0E8E0FBE0A9
:1000D00002C005900D92AE3FB107D9F723E0AEEF15
:1000E000B2E001C01D92AB32B207E1F710E0CDE5FE
:1000F000D0E004C02197FE010E947705CC35D107DE
:10010000C9F70E9482030C9482050C94000090E0D1
:10011000FC01EC55FF4F2491FC01E057FF4F849107
:10012000882399F090E0880F991FFC01EA57FF4F50
:10013000A591B491FC01E458FF4F859194918FB73C
:10014000F894EC91E22BEC938FBF089590E0FC01C2
:10015000E859FF4F2491FC01EC55FF4F3491FC010D
:10016000E057FF4FE491EE2309F43CC0222339F11C
:10017000233091F038F42130A9F0223001F584B514
:100180008F7D12C0273091F02830A1F02430B9F4CF
:10019000809180008F7D03C0809180008F77809355
:1001A00080000DC084B58F7784BD09C08091B000F8
:1001B0008F7703C08091B0008F7D8093B000F0E016
:1001C000EE0FFF1FE458FF4FA591B4919FB7F8942D
:1001D000611104C08C913095382302C0EC913E2B04
:1001E0003C939FBF08953FB7F89480910F0390917F
:1001F0001003A0911103B091120326B5A89B05C06E
:100200002F3F19F00196A11DB11D3FBFBA2FA92F95
:10021000982F8827820F911DA11DB11DBC01CD0112
:1002200042E0660F771F881F991F4A95D1F70895FE
:100230008F929F92AF92BF92CF92DF92EF92FF92F6
:100240006B017C010E94F3004B015C01C114D104DD
:10025000E104F104F1F00E94F300DC01CB01881904
:100260009909AA09BB09883E9340A105B10570F31D
:1002700021E0C21AD108E108F10888EE880E83E077
:10028000981EA11CB11CC114D104E104F10419F79A
:10029000DDCFFF90EF90DF90CF90BF90AF909F9019
:1002A0008F900895CF92DF92EF92FF920F931F935A
:1002B000CF93DF936C017A018B01C0E0D0E0CE15C3
:1002C000DF0581F0D8016D918D01D601ED91FC9192
:1002D0000190F081E02DC6010995892B11F021963E
:1002E000EECF7E01C701DF91CF911F910F91FF905B
:1002F000EF90DF90CF900895CF93DF93EC0160E013
:100300008E810E94A60061E08E810E94A60060E0BE
:100310008E810E94A6008BE891E00197F1F7DF91B2
:10032000CF910895CF92DF92EF92FF920F931F9398
:10033000CF93DF936C017C0187E0E80EF11CC0E0F5
:10034000D0E0062F10E0B8010C2E02C0759567951D
:100350000A94E2F76170F70181917F010E94A60083
:100360002196C430D10579F7C601DF91CF911F9155
:100370000F91FF90EF90DF90CF900C947C01CF9283
:10038000DF92EF92FF920F931F93CF93DF93EC01D5
:10039000F62E642F8C810E94A6008D818F3F19F06C
:1003A00060E00E94A6008F850F2D10E084FF25C01D
:1003B0006E0187E0C80ED11CE12CF12CB8010E2C87
:1003C00002C0759567950A94E2F76170F601819114
:1003D0006F010E94A600FFEFEF1AFF0A88E0E816FF
:1003E000F10461F7CE01DF91CF911F910F91FF9042
:1003F000EF90DF90CF900C947C01B80184E075956C
:1004000067958A95E1F7CE010E9492016F2DCE018A
:10041000DF91CF911F910F91FF90EF90DF90CF90E0
:100420000C94920140E0682F83E193E00C94BF01AB
:1004300081E00E9412028BE39FE10197F1F708959A
:10044000CF93DF93823028F09091220398609093AD
:100450002203809326031092270380E480932803CD
:1004600080E18093290380E580932A03809117031C
:100470000E948700809118038F3F11F00E9487002F
:10048000809119030E948700C3E1D3E09E012351AC
:1004900033408091220384FD03C084E090E002C0D9
:1004A00088E090E021962817390724F48E810E9475
:1004B0008700ECCF8BE39DE00197F1F760E080913E
:1004C00017030E94A60060E0809119030E94A60015
:1004D000809118038F3F19F060E00E94A600809180
:1004E000220384FD20C063E083E193E00E94920137
:1004F000CBE4D6E4CE010197F1F763E083E193E02A
:100500000E9492012197F1F763E083E193E00E945A
:10051000920183E592E00197F1F762E083E193E0D5
:100520000E94920115C080620E9412028BE496E440
:100530000197F1F78091220380620E94120283E505
:1005400092E00197F1F78091220380620E941202EB
:100550008091220380620E94120284E08093230330
:100560008CE00E9412020E94180282E08093240311
:1005700086E0DF91CF910C94120241E00E94BF010E
:1005800081E090E00895089580E090E0089500975C
:1005900069F0FC0101900020E9F73197AF01481B99
:1005A000590BBC0183E193E00C94520180E090E090
:1005B00008958F929F92AF92BF920F931F93CF9304
:1005C000DF93CDB7DEB7A1970FB6F894DEBF0FBEAD
:1005D000CDBF19A2423008F44AE08E010F5D1F4FD3
:1005E000842E912CA12CB12CA50194010E945505BB
:1005F000E62FB901CA0101501109EA3014F4E05D97
:1006000001C0E95CD801EC93232B242B252B61F747
:10061000C8010E94C702A1960FB6F894DEBF0FBEB4
:10062000CDBFDF91CF911F910F91BF90AF909F9061
:100630008F900895CF92DF92EF92FF926B017C0131
:1006400041E06DE283E193E00E94BF0166277727D6
:10065000CB016C197D098E099F094AE00E94D902DD
:100660000196FF90EF90DF90CF9008950E947D0556
:100670001F920F920FB60F9211242F933F938F93D7
:100680009F93AF93BF9380910B0390910C03A09124
:100690000D03B0910E0330910A0323E0230F2D3791
:1006A00020F40196A11DB11D05C026E8230F029676
:1006B000A11DB11D20930A0380930B0390930C039B
:1006C000A0930D03B0930E0380910F03909110033C
:1006D000A0911103B09112030196A11DB11D809349
:1006E0000F0390931003A0931103B0931203BF91D3
:1006F000AF919F918F913F912F910F900FBE0F90CF
:100700001F901895789484B5826084BD84B581600B
:1007100084BD85B5826085BD85B5816085BD8091CC
:100720006E00816080936E00109281008091810044
:10073000826080938100809181008160809381003C
:10074000809180008160809380008091B1008460FE
:100750008093B1008091B00081608093B00080915F
:100760007A00846080937A0080917A00826080931E
:100770007A0080917A00816080937A0080917A007B
:10078000806880937A001092C10082E00E9420026B
:1007900084E090E09093FF028093FE0202E010E07C
:1007A00022242394312CA2E14A2EA1E05A2EC3E048
:1007B000D0E0BAE06B2EB1E07B2E80E0882E81E0A5
:1007C000982E64E0C62ED12C7CE1A72E71E0B72EC6
:1007D000E0E0EE2EE0E0FE2E20E420937C0080910D
:1007E0007A00806480937A0080917A0086FDFCCF45
:1007F000809178002091790090E0922B9C012D53FC
:1008000031092B383105A0F480910603909107033C
:100810000197909307038093060397FF87C0809109
:10082000FE029091FF0290930703809306037EC01F
:10083000803921E0920794F4809106039091070398
:10084000019690930703809306032091FE02309156
:10085000FF02281739070CF069C052C08955924031
:10086000873C910508F062C08091080390910903CC
:10087000009709F04AC00E941802309209032092A2
:10088000080380910603909107039C012F5F3F4F5F
:10089000309303032093020382309105F9F04CF466
:1008A000009789F0019761F5B0920503A0920403C7
:1008B00023C083309105B9F0049711F59092050398
:1008C0008092040319C086E291E09093050380931F
:1008D0000403D092FF02C092FE0212C050920503A0
:1008E0004092040309C070920503609204031093C0
:1008F000FF020093FE0204C0D093FF02C093FE02E9
:10090000109207031092060311C0019779F4109317
:100910000903009308038091060390910703019651
:1009200090930103809300030E941802E1E08091FC
:1009300026038111E0E0E195F0E0ED5EFC4F848953
:1009400080680E9412028AE491E00E94C7028091AE
:10095000080390910903009749F4E0910603F09190
:100960000703EE0FFF1FE25CFE4F0FC00197B9F4C3
:100970008091060390910703880F991F209104032B
:1009800030910503F901E80FF91F808191810E94E0
:10099000C702E0912603E23088F5E15030C0609153
:1009A000020370910303072E000C880B990B97FF2D
:1009B00003C00E941A0303C04AE00E94D90260915A
:1009C000000370910103072E000C880B990B97FF11
:1009D00003C00E941A0303C04AE00E94D90268E8DB
:1009E00073E180E090E00E941801109207031092DA
:1009F000060310920903109208032CC0E1E0F0E016
:100A0000ED5EFC4F84898E5F80680E9412028091A7
:100A1000080390910903009749F4E0910603F091CF
:100A20000703EE0FFF1FE05CFE4F10C0019791F42B
:100A300080910603909107030196880F991F2091DA
:100A4000040330910503F901E80FF91F80819181BA
:100A50000E94C70265E070E080E090E00E9418010B
:100A6000E114F10409F4B8CE0E940000AACEE3E13B
:100A7000F3E01382128286E391E09183808388E021
:100A800084838FEF858389E0868384E0878385E094
:100A9000808786E0818787E08287138614861586A3
:100AA0001686178681E00C942002A1E21A2EAA1B5A
:100AB000BB1BFD010DC0AA1FBB1FEE1FFF1FA2170E
:100AC000B307E407F50720F0A21BB30BE40BF50B0B
:100AD000661F771F881F991F1A9469F76095709594
:100AE000809590959B01AC01BD01CF010895EE0F5B
:100AF000FF1F0590F491E02D099481E090E0F894B7
:080B00000C948205F894FFCF6C
:100B08004D015E016F0180019101A201B501C5018E
:100B18009101D801E901FA010B0291011C022D0291
:100B28003D024B0291015C026D027E028A029B0229
:100B3800910100000000BD025201C402C302AC02D0
:100B4800BC02CB02DA02EB0291013E20005A455268
:100B58004F20202020202020202020202000436813
:100B6800616E6E656C2031202020202020200043FB
:100B780068616E6E656C20322020202020202000C5
:100B88004368616E6E656C20332020202020202071
:100B9800002020202020202020202020202020206D
:100BA8002000736574206672657175656E637920BF
:100BB80020202020007365742073686170652020F0
:100BC800202020200073657420616D706C69747535
:100BD800646520202020200053562020202020203B
:100BE8002020202020202020005052454D20202069
:100BF8002020202020202020200056454E54202050
:100C08002020202020202020202000434F4E442058
:100C180020202020202020202020200057617665D9
:100C280020202020202020202020202000494E4A5B
:100C38002054656D702020202020202000424C2068
:100C480054656D7020202020202000434320202060
:100C5800202020202020202020202000454347203D
:100C680052617465202020202020202000416D70D2
:100C78006C69747564652020202020202000505461
:100C880020547970652020202000535420202020F3
:100C9800202020202020202020200041727466205F
:100CA80020202020202020202020200045434720ED
:100CB80057617665666F726D20202000436172640B
:100CC800696163204F757470757400417272687938
:100CD80074686D6961732020200050455246205782
:100CE8006176652020202020202000426C6F6F64F0
:0E0CF8002050726573737572652020202000F5
:107E0000112484B714BE81FFF0D085E080938100F7
:107E100082E08093C00088E18093C10086E0809377
:107E2000C20080E18093C4008EE0C9D0259A86E02C
:107E300020E33CEF91E0309385002093840096BBD3
:107E4000B09BFECF1D9AA8958150A9F7CC24DD24C4
:107E500088248394B5E0AB2EA1E19A2EF3E0BF2EE7
:107E6000A2D0813461F49FD0082FAFD0023811F036
:107E7000013811F484E001C083E08DD089C08234E0
:107E800011F484E103C0853419F485E0A6D080C0E4
:107E9000853579F488D0E82EFF2485D0082F10E0AE
:107EA000102F00270E291F29000F111F8ED06801E7
:107EB0006FC0863521F484E090D080E0DECF843638
:107EC00009F040C070D06FD0082F6DD080E0C81688
:107ED00080E7D80618F4F601B7BEE895C0E0D1E017
:107EE00062D089930C17E1F7F0E0CF16F0E7DF06D8
:107EF00018F0F601B7BEE89568D007B600FCFDCFD4
:107F0000A601A0E0B1E02C9130E011968C91119780
:107F100090E0982F8827822B932B1296FA010C0160
:107F200087BEE89511244E5F5F4FF1E0A038BF0790
:107F300051F7F601A7BEE89507B600FCFDCF97BE46
:107F4000E89526C08437B1F42ED02DD0F82E2BD052
:107F50003CD0F601EF2C8F010F5F1F4F84911BD097
:107F6000EA94F801C1F70894C11CD11CFA94CF0C13
:107F7000D11C0EC0853739F428D08EE10CD085E9AC
:107F80000AD08FE07ACF813511F488E018D01DD067
:107F900080E101D065CF982F8091C00085FFFCCF94
:107FA0009093C60008958091C00087FFFCCF809118
:107FB000C00084FD01C0A8958091C6000895E0E648
:107FC000F0E098E1908380830895EDDF803219F02E
:107FD00088E0F5DFFFCF84E1DECF1F93182FE3DFCA
:107FE0001150E9F7F2DF1F91089580E0E8DFEE27F6
:047FF000FF270994CA
:027FFE00040479
:0400000300007E007B
:00000001FF
